:0403000087EF01F092
:0A0308004A827AED0CF004EF10F0C9
:1010000000000102030405060708090A0B0C010091
:101010000A006400E8031027543A2533752E25751D
:101020004320563A25752E25755620004E6561726F
:1010300020416C65727420202020202000413A2538
:10104000337520443A2D2D2D202020202000526180
:101050006461722053776565702020202020004154
:101060003A25337520443A25337520636D202000DE
:101070005374617274696E672E2E2E004D2C257587
:101080002C25750D0A0025752C300D0A0000000E68
:101090000001DF6F100EDE6F50EC10F0000E1E6EC0
:1010A000640E1D6EB5EC11F0A7EC0EF0000E1E6E76
:1010B000140E1D6EB5EC11F00C0E2FEC0FF0000E9F
:1010C0001E6E050E1D6EB5EC11F00C0E2FEC0FF020
:1010D000000E1E6E050E1D6EB5EC11F0000E276E93
:1010E000000E93EC10F0700E2B6E100E2C6E04ECB4
:1010F0000FF0010E1E6EF40E1D6EB5EC11F0C8EC73
:1011000011F00DEC12F05AEC12F0F2EC10F0000EAF
:101110001E6E640E1D6EB5EC11F00001E591000E1F
:10112000E26F000EE16F040081B03AD0000E1E6E37
:10113000140E1D6EB5EC11F081B034D00001E5B194
:1011400031D0E451D8A402D0010E01D0000EE46FDA
:10115000E581E451D8B40DD08B948A948B90000E25
:10116000E36F010EE66FE35145EC11F0D3EC10F0A4
:1011700004D08A948B946AEC12F00C0E2FEC0FF0D2
:10118000000E1E6E050E1D6EB5EC11F0000E000176
:10119000DF6F100EDE6F000EE26F000EE16F02D007
:1011A0000001E591ABA202D0AB98AB880001E451FD
:1011B000D8A4E0D0DFBFAED0DF5104E1100EDE5D79
:1011C000D8A0A8D00A0E366E020EF66E100EF76E7C
:1011D0000800F550E3EC0DF036C0CCF037C0CDF090
:1011E000CCC036F0CDC037F0D9EC0EF036C0DAF016
:1011F00037C0DBF00A0E366E010EF66E100EF76E7B
:101200000800F550E3EC0DF036C0CEF037C0CFF05B
:10121000CEC036F0CFC037F085EC0FF036C0D0F03E
:1012200037C0D1F0320E0001D0251D6E000ED12145
:101230001E6E000E206E640E1F6EDBEC0FF01DC0E4
:10124000DCF01EC0DDF0000E276E000E93EC10F0F7
:10125000DAC01DF0DBC01EF0000E206E0A0E1F6EFD
:10126000DBEC0FF01DC0D2F01EC0D3F0DAC024F0CA
:10127000DBC025F0000E276E0A0E266E72EC10F011
:1012800024C0D4F025C0D5F0DCC01DF0DDC01EF0B8
:10129000000E206E0A0E1F6EDBEC0FF01DC0D6F0A4
:1012A0001EC0D7F0DCC024F0DDC025F0000E276E94
:1012B0000A0E266E72EC10F024C0D8F025C0D9F0CA
:1012C000AC0E296E000E2A6E180E2B6E100E2C6EB0
:1012D000D2C02DF0D3C02EF0D4C02FF0D5C030F046
:1012E000D6C031F0D7C032F0D8C033F0D9C034F016
:1012F000D3EC09F0AC0E2B6E000E2C6E04EC0FF04C
:10130000010E276E000E93EC10F0000E0001DF6F4F
:10131000000EDE6F39EC12F00009D8B43AD070EC50
:1013200012F00001E06FE05162EC12F0420E000199
:10133000E019D8B4B4EC10F00001E2BF0ED0E251D5
:1013400004E1100EE15DD8A008D0010E5EEC11F0B2
:10135000000E0001E26F000EE16F010E276EE151F9
:1013600093EC10F00001E0512FEC0FF00001E14B85
:10137000E22B0FD0DFBF0DD0DF5104E1020EDE5DA6
:10138000D8A007D0B6EC0BF0000E0001DF6F000E06
:10139000DE6F0001DE4BDF2B000E1E6E320E1D6E67
:1013A000B5EC11F0C0D62D0E3A6E000E3B6EE1D0BA
:1013B000250E4118D8B409D029C0D9FF2AC0DAFFB8
:1013C00041C0DFFF294A2A2AD4D0000E406E000E09
:1013D0003F6E000E396E2BC0F6FF2CC0F7FF0800E1
:1013E000F5501CEC12F0D8A036D0000E406E000E66
:1013F0003F6E3FC01DF040C01EF0000E206E0A0E72
:101400001F6EA2EC11F01DC03FF01EC040F0D00EC8
:10141000356EFF0E366E2BC0F6FF2CC0F7FF0800AE
:10142000F550376E386A35503726365038223750E7
:101430003F26385040222B4A2C2A2BC0F6FF2CC0C6
:10144000F7FF0800F5501CEC12F0D8A004D0D1D75B
:10145000C00E391211D02BC0F6FF2CC0F7FF2B4A5B
:101460002C2A0800F5CF41F04150000AD8B48DD0A5
:10147000750AD8B4EDD77DD03AC0D9FF3BC0DAFFAA
:10148000DECF3CF0DDCF3DF0020E3A26000E3B22CF
:10149000010E416E050E4118D8B412D04150020D14
:1014A0000E0EF324F66E100EF420F76E0900F550C0
:1014B0003C5C0900F5503D58D8A002D0412AEAD73B
:1014C000800E41BE7F0E356E3F50415C4050800A19
:1014D0003558D8B007D041503F5E000E41BEFF0ED8
:1014E000405A04D0000E406E000E3F6E3F50401038
:1014F000D8B40FD029C0D9FF2AC0DAFF200EDF6E82
:10150000294A2A2A3F06D8A040063F504010D8A4B6
:10151000F1D741C03EF029D03E50020D0E0EF3240B
:10152000F66E100EF420F76E0900F5CF1FF00A00DA
:10153000F5CF20F03CC01DF03DC01EF0DBEC0FF0FD
:101540001DC024F01EC025F0000E276E0A0E266E68
:1015500072EC10F02450300F416E29C0D9FF2AC020
:10156000DAFF41C0DFFF294A2A2A3E063E28D8A4D6
:10157000D3D72BC0F6FF2CC0F7FF2B4A2C2A08002C
:10158000F5CF41F04150D8A413D729C0D9FF2AC0C4
:10159000DAFF000EDF6E1200000E386E000E376E9E
:1015A000020E376401D01ED0350E256E000E266E59
:1015B00016EC0DF00009D8B40DD03850020D390EDC
:1015C000F324D96E000EF420DA6E35C0DEFF36C08B
:1015D000DDFF382A000E1E6E190E1D6E2BEC12F068
:1015E000372ADED7030E386039D0020E3818D8A457
:1015F00033D0390E1D6E000E1E6E38C01FF090ECF9
:101600000DF039C02DF03AC02EF02D1E2E1E2D4AA1
:101610002E2A3B502D263C502E222E501DE1090E25
:101620002D5CD8B019D039503B242D6E3A503C2057
:101630002E6E010E2D26000E2E22D8902E30306EEA
:101640002D302F6E2BC0D9FF2CC0DAFF2FC0DEFF4C
:1016500030C0DDFF010E1200000E1200390E1D6EAB
:10166000000E1E6E38C01FF090EC0DF039C02DF04A
:101670003AC02EF02D1E2E1E2D4A2E2A3D502D260C
:101680003E502E222E5004E1090E2D5CD8A064D0CD
:1016900039C02DF03AC02EF02D1E2E1E2D4A2E2AB6
:1016A0003B502D24316E3C502E20326E20EE3BF00C
:1016B000DECF2DF0DDCF2EF02D1E2E1E2D4A2E2A30
:1016C0003D502D24336E3E502E20346E325023E197
:1016D000090E315CD8B01FD03150335C32503458D1
:1016E000D8A019D039503B242D6E3A503C202E6E94
:1016F000010E2D26000E2E22D8902E30306E2D3069
:101700002F6E2BC0D9FF2CC0DAFF2FC0DEFF30C0F8
:10171000DDFF010E120034501DE1090E335CD8B01C
:1017200019D03D503B242D6E3E503C202E6E010EB4
:101730002D26000E2E22D8902E30306E2D302F6E9A
:101740002BC0D9FF2CC0DAFF2FC0DEFF30C0DDFF79
:10175000010E1200000E12002BC0D9FF2CC0DAFFC0
:101760003BC0DEFF3CC0DDFF010E1200E3C0ABF06A
:10177000800E296E000E2A6E7C0E2B6E100E2C6EC3
:10178000ABC02DF02E6A000E306E280E2F6ED3ECFB
:1017900009F0800E1E6E000E1F6EDAEC11F00001D3
:1017A000AB5145EC11F0000E1E6E280E1D6E2BEC99
:1017B00012F0000E276E000E93EC10F0A90E2B6EA7
:1017C000000E2C6ECCEC0AF00009D8B459D0980E5B
:1017D000296E000E2A6E5F0E2B6E100E2C6EABC0A3
:1017E0002DF02E6AA9C02FF0AAC030F0D3EC09F07A
:1017F000980E2B6E000E2C6E04EC0FF0800E296EEE
:10180000000E2A6E7E0E2B6E100E2C6EABC02DF0CD
:101810002E6AA9C02FF0AAC030F0D3EC09F0800ED8
:101820001E6E000E1F6EDAEC11F00001AA511AE1D3
:101830000B0EA95DD8B016D08A84010E276E000E5B
:1018400093EC10F02C0E2B6E100E2C6E04EC0FF09F
:10185000500E8CEC11F0000E1E6E780E1D6E2BECEF
:1018600012F041D08A948B94010E276E000E93ECF7
:1018700010F04E0E2B6E100E2C6E04EC0FF033D0C9
:101880008A948B94980E296E000E2A6E3D0E2B6E54
:10189000100E2C6EABC02DF02E6AD3EC09F0980E12
:1018A0002B6E000E2C6E04EC0FF0800E296E000ED5
:1018B0002A6E860E2B6E100E2C6EABC02DF02E6A8B
:1018C000D3EC09F0800E1E6E000E1F6EDAEC11F0E4
:1018D000010E276E000E93EC10F04E0E2B6E100EC4
:1018E0002C6E04EC0FF010EC11F00001E35145EC0C
:1018F00011F012000600FACF05F0FBCF06F0E9CF99
:1019000007F0EACF08F0E1CF09F0E2CF0AF0D9CF33
:101910000BF0DACF0CF0F3CF0DF0F4CF0EF0F6CFE2
:101920000FF0F7CF10F0F8CF11F0F5CF12F04AC05A
:1019300013F04BC014F04CC015F04DC016F0A1B21E
:10194000A0A24ED0A1924950D8A404D08B92000EF0
:10195000486E1BD04850D8B41DD08B92000E486EF4
:10196000200E465C4E0E4758D8B00FD046C001F04E
:1019700047C002F0011E021E014A022A200E012465
:10198000176E4E0E0220186E0CD04E0E186E200EE2
:10199000176E07D08B82010E486E46C017F047C005
:1019A00018F01750016E1850026E036A046A011E87
:1019B000021E031E041E012A000E0222032204221C
:1019C000000E0124196E000E02201A6E010E032073
:1019D0001B6E000E04201C6E1AC0B3FF19C0B2FFAC
:1019E00016C04DF015C04CF014C04BF013C04AF0B7
:1019F00012C0F5FF11C0F8FF10C0F7FF0FC0F6FFCF
:101A00000EC0F4FF0DC0F3FF0CC0DAFF0BC0D9FF0E
:101A10000AC0E2FF09C0E1FF08C0EAFF07C0E9FF12
:101A200006C0FBFF05C0FAFF4A92110050EC12F00D
:101A30000ED0750E246E300E236EFDEC11F00009F1
:101A4000D8B404D077EC12F0000E1200040082B675
:101A5000F0D777EC12F08B90000E1E6E020E1D6E0A
:101A60005AEC0FF08B80000E1E6E0A0E1D6E5AECA3
:101A70000FF08B9050EC12F00ED0750E246E300EDD
:101A8000236EFDEC11F00009D8B404D077EC12F00D
:101A9000000E1200040082A6F0D750EC12F00ED017
:101AA000750E246E300E236EFDEC11F00009D8B4D3
:101AB00004D077EC12F0000E1200040082B6F0D7CA
:101AC00077EC12F045EC12F01DC027F01EC028F094
:101AD0001D0E27241D6E000E28201E6E000E206E87
:101AE0003A0E1F6EDBEC0FF01DC029F01EC02AF06D
:101AF0002A5004E1030E295CD8A006D02A5004E144
:101B00003D0E295CD8A002D0000E120025C0D9FFDE
:101B100026C0DAFF29C0DEFF2AC0DDFF010E120059
:101B2000000E276E4BD02728266E43D02750020D7B
:101B3000F3501D24D96EF4501E20DA6E2650020D8B
:101B4000F3501D24E16EF4501E20E26EDE50E65C80
:101B5000DE50E658D8B02CD02750020DF3501D248B
:101B6000D96EF4501E20DA6EDECF24F0DDCF25F0E2
:101B70002650020DF3501D24D96EF4501E20DA6E4B
:101B80002750020DF3501D24E16EF4501E20E26E2A
:101B9000DECFE6FFDDCFE5FF2650020DF3501D241A
:101BA000D96EF4501E20DA6E24C0DEFF25C0DDFFA2
:101BB000262A1F50265CD8A0B9D7272A1F50275C99
:101BC000D8B01200B0D73E6E000E396E000E3A6EDD
:101BD000000E3B6E000E3C6E3E502BEC11F0000EE2
:101BE0001E6E020E1D6EB5EC11F0000E3D6E12D091
:101BF0003E502BEC11F01D5039261E503A22000E9B
:101C00003B22000E3C22000E1E6E020E1D6EB5EC35
:101C100011F03D2A36503D5CD8A0EAD736C038F0E6
:101C2000D890383238503924296E000E3A202A6E66
:101C3000000E3B202B6E000E3C202C6E36502D6E7D
:101C40002E6A2F6A306A2AEC0EF029C036F02AC0BC
:101C500037F01200000E316E000E326E000E336E41
:101C6000000E346E2D502E102F103010D8B42AD004
:101C7000010E356E06D0D8902D362E362F363036E2
:101C8000352A30AEF8D7D89031363236333634363E
:101C90002D50295C2E502A582F502B5830502C583C
:101CA000D8A009D02D50295E2E502A5A2F502B5AD9
:101CB00030502C5A3180D89030322F322E322D3283
:101CC000352EE1D731C029F032C02AF033C02BF0D5
:101CD00034C02CF012003C6EB40E3C6402D0B40E42
:101CE0003C6EE80E386E030E396E000E3A6E000E32
:101CF0003B6E3C501D6E1E6A1F6A206AE80E216E04
:101D0000030E226E000E236E000E246EB0EC0FF058
:101D10001DC029F01EC02AF01FC02BF020C02CF0DF
:101D2000B40E2D6E000E2E6E000E2F6E000E306E55
:101D30002AEC0EF0295038262A5039222B503A220C
:101D40002C503B2238C036F039C037F01200839453
:101D500083928396000E1E6E190E1D6EB5EC11F067
:101D6000010E276E030E276401D00BD0030EECEC9E
:101D700011F0000E1E6E060E1D6EB5EC11F0272A36
:101D8000F1D7020EECEC11F0000E276E030E276463
:101D900001D012002750010D420EF324D96E000E1F
:101DA000F420DA6EDF50256E000E2CEC10F0272A9E
:101DB000EDD736C01DF037C01EF01F6A206A880EAE
:101DC000216E130E226E000E236E000E246EB0ECF8
:101DD0000FF0FF0E1D24296E010E1E202A6E000E2C
:101DE0001F202B6E000E20202C6EFF0E2D6E030E7A
:101DF0002E6E000E2F6E000E306E2AEC0EF029C0F3
:101E000036F02AC037F0120015D02BC0F6FF2CC0D8
:101E1000F7FF000EF86E0F0EF76403D00800F550C0
:101E200005D0F6CFE9FFF7CFEAFFEF502FEC0FF028
:101E30002B4A2C2A2BC0F6FF2CC0F7FF000EF86EA1
:101E40000F0EF76403D00800F55005D0F6CFE9FF78
:101E5000F7CFEAFFEF500009D8B41200D6D72A6EA8
:101E60001ED0010E256E000E2CEC10F0000E1E6E22
:101E7000020E1D6EB5EC11F01200020E276E010E5F
:101E800093EC10F01200100E256E000E2CEC10F0EA
:101E900012002AC025F0010E2CEC10F012002A507E
:101EA000080AD8B4F0D7020AD8B4E7D7060AD8B4DB
:101EB000D8D7EFD709D0210EE82EFED700F0640E58
:101EC0001D5E000E1E5A04001E50F5E1640E1D5CDE
:101ED000D8A00AD0F0D7030EE82EFED700F00A0EE5
:101EE0001D5E000E1E5A04001E50F5E10A0E1D5C18
:101EF000D8A006D0F0D700F01D06D8A01E0604001A
:101F00001D501E10D8B41200F6D736C01DF037C0D1
:101F10001EF01F6A206A880E216E130E226E000EBC
:101F2000236E000E246EB0EC0FF0FF0E1D24296E00
:101F3000010E1E202A6E000E1F202B6E000E202088
:101F40002C6EFF0E2D6E030E2E6E000E2F6E000EE9
:101F5000306E2AEC0EF029C036F02AC037F012009D
:101F6000000E256E000E266E000E276E000E286EE7
:101F70001DA008D02150252622502622235027229A
:101F800024502822D8902136223623362436D89061
:101F900020321F321E321D321D501E101F10201005
:101FA000D8A4E6D725C01DF026C01EF027C01FF01C
:101FB00028C020F01200000E226E000E216E1F506D
:101FC0002010D8B41CD0010E236E04D0D8901F3638
:101FD0002036232A20AEFAD7D890213622361F5039
:101FE0001D5C20501E58D8A005D01F501D5E2050EB
:101FF0001E5A2180D89020321F32232EEDD721C0C7
:102000001DF022C01EF01200F40EF66E240EF76EC4
:10201000000EF86E0900F5CFE6F0E80EF66E240E1D
:10202000F76E000EF86E00EE42F010EE06F00900BA
:10203000F5CFEEFFE550E150FAE10001E56BE46B0E
:10204000E36BE26BE16B496A486A4A904A92000E80
:10205000F86E000147EF08F0266E26B002D083929A
:1020600001D08382010E75EC11F0010E75EC11F0B8
:10207000839625380F0BECEC11F025500F0BECEC90
:1020800011F02650D8B405D0320E0400E82EFDD74A
:102090001200000E1E6E020E1D6EB5EC11F0120045
:1020A000000EF26E000EF16E070EB46E000EB56EED
:1020B0000D0EC16E000E8D6E8DCF8CFF8CCF8BFF01
:1020C0008BCF8AFF8ACF89FF9268FB0E936E000E3A
:1020D000966E96CF95FF880E946E8B908B928A9415
:1020E0008B94120026502710D8B418D0010E286EF9
:1020F00004D0D89026362736282A27AEFAD726507D
:10210000245C27502558D8A004D02650245E2750A0
:10211000255AD89027322632282EF1D724C024F011
:1021200025C025F01200286E09D0800E05D0C00E03
:1021300003D0900E01D0D00E296E0DD02750000A8A
:10214000D8B4F3D7010AD8B4F2D7030AD8B4F1D778
:10215000010AD8B4F0D72850292629508009256EC5
:10216000000E2CEC10F01200000E226E000E216EFC
:1021700022BE06D0225016E1050E215CD8B0120016
:102180008B84010E1E6EF40E1D6EB5EC11F08B9457
:10219000010E1E6EF40E1D6EB5EC11F00400214A06
:1021A000222AE6D71200000EA0B2010E1D6EA092E8
:1021B000B190010E496E000E486E8B929C0E1E6E01
:1021C000FF0E1F6E000E206E000E216E1FC0B3FFAB
:1021D0001EC0B2FFA192B1801DB002D0A09201D06A
:1021E000A0821200800EB16E000E496E000E486E85
:1021F000030E476EE80E466E8B92E00E1D6EB10E1A
:102200001E6E000E1F6E000E206E1EC0B3FF1DC09E
:10221000B2FFA192A082D09EF28CF28EB180120009
:102220000001E651800A7F0FD8A00AD0B10EE36505
:1022300004D0B40EE36FE6691200020EE327120029
:10224000030EE36105D0000EE36F010EE66F12008E
:10225000020EE35F1200236E23C01FF01F461F46CD
:10226000C2501F18C30B1F18C26EC28201D00400D7
:10227000C2B2FDD7C4501F6EC350216E1FC022F0E2
:1022800021C01DF022C01EF01200406E40506BECC9
:102290000EF036C03DF037C03EF040C0E3F0000E17
:1022A000A0B2010E3F6EA0923DC046F03EC047F086
:1022B0003FB002D0A09201D0A08212002B6E2BC0A2
:1022C00027F0000E93EC10F0000E2C6E0F0E2C6415
:1022D00001D005D0200E2FEC0FF02C2AF7D72BC001
:1022E00027F0000E93EC10F01200206E000E226E0C
:1022F000000E216E03D00400214A222A20501D6EB8
:102300001E6A21501D5C1E50800A1F6E2250800ADA
:102310001F58D8A01200EFD71D6E000E1E6E0CD0F5
:102320008B84A60EE82EFED700D08B94A60EE82E46
:10233000FED700D004001E2A1D501E5CD8A0F0D786
:102340008B9412001D501F02F3CF21F0F4CF22F026
:102350001D502002F35022261E501F02F350222649
:1023600021C01DF022C01EF01200000E206E000ED3
:102370001F6E07D0C80E04000400E82EFCD71F4AC9
:10238000202A1F501D5C20501E58D8A01200F2D7E2
:10239000B896000EAC6E190EAF6E000EB06EAC8427
:1023A000AC8A000EAB6EAB88AB8EAECF1DF0AECF5D
:1023B0001DF0120009D01EC0D9FF1FC0DAFFDF5088
:1023C00062EC12F01E4A1F2A1EC0D9FF1FC0DAFF9E
:1023D000DF50D8B41200EFD7246E24C023F0233A84
:1023E000835023180F0B2318836E010E75EC11F028
:1023F0008386040000F0839612009EA002D0010E96
:10240000120045EC12F023501D5C24501E58D8A039
:1024100002D0010E1200000E1200000EC26EC28029
:10242000000EC06EC08EC050F80B0109C06EC050C7
:10243000C70B0809C06E12001F6E000E1E6E3A0E0A
:102440001F6005D02F0E1F6402D0010E1E6E1EC02D
:102450001DF01D30120008D0C80E00D0E82EFDD7A8
:102460001D06D8A01E0604001D501E10D8B4120070
:10247000F3D7ABB402D0ABA202D0AB98AB889EAA84
:1024800002D0010E1200000E1200CECF21F0CFCFED
:1024900022F022501F6E21501D6E1FC01EF0120030
:1024A000800ECD6E9E90000ECF6E000ECE6E810E11
:1024B000CD6E1200800ECD6E9E90000ECF6E000E7F
:1024C000CE6E12001D6E01D00400ACA2FDD71DC05F
:1024D000ADFF1200000E496E000E486E8B92120086
:1024E000AECF1DF01D501200280C0106E803800E2F
:0524F000CD6E12000199
:020000040020DA
:08000000FFFFFFFFFFFFFFFF00
:020000040030CA
:0E000000FF011F1FFF8381FF0FC00FE00F40A5
:00000001FF
