:040300005EEF0FF0AD
:1010000000000102030405060708090A0B0C010091
:101010000A006400E8031027543A2533752E25751D
:101020004320563A25752E25755620004E6561726F
:1010300020416C65727420202020202000413A2538
:10104000337520443A2D2D2D202020202000526180
:101050006461722053776565702020202020004154
:101060003A25337520443A25337520636D202000DE
:101070005374617274696E672E2E2E004D2C257587
:101080002C25750D0A0025752C300D0A0000000E68
:101090000001B36F100EB26FA6EC0FF0000E026EDF
:1010A000640E016EEAEC10F001EC0EF0000E026E20
:1010B000140E016EEAEC10F00C0E89EC0EF0000E2E
:1010C000026E050E016EEAEC10F00C0E89EC0EF0CB
:1010D000000E026E050E016EEAEC10F0000E0B6EB3
:1010E000000EE9EC0FF0700E0F6E100E106E5EEC3D
:1010F0000EF0010E026EF40E016EEAEC10F0FDEC43
:1011000010F042EC11F08FEC11F0000E026E640E44
:10111000016EEAEC10F00001B991000EB66F000EFE
:10112000B56F040081B038D0000E026E140E016E4F
:10113000EAEC10F081B032D00001B9B12FD0B85133
:10114000D8A402D0010E01D0000EB86FB981B851F9
:10115000D8B40CD08B948A948B928B90000EB76F7E
:10116000010EBA6FB751ABEC10F003D08A948B9498
:101170008B920C0E89EC0EF0000E026E050E016EC5
:10118000EAEC10F0000E0001B36F100EB26F000E0B
:10119000B66F000EB56F02D00001B991ABA202D0BC
:1011A000AB98AB880001B851D8A4E0D0B3BFAED0A3
:1011B000B35104E1100EB25DD8A0A8D00A0E1A6E89
:1011C000020EF66E100EF76E0800F5503DEC0DF0B5
:1011D0001AC0A0F01BC0A1F0A0C01AF0A1C01BF063
:1011E00033EC0EF01AC0AEF01BC0AFF00A0E1A6E50
:1011F000010EF66E100EF76E0800F5503DEC0DF086
:101200001AC0A2F01BC0A3F0A2C01AF0A3C01BF02A
:10121000DFEC0EF01AC0A4F01BC0A5F0320E0001E6
:10122000A425016E000EA521026E000E046E640E50
:10123000036E35EC0FF001C0B0F002C0B1F0000E4B
:101240000B6E000EE9EC0FF0AEC001F0AFC002F083
:10125000000E046E0A0E036E35EC0FF001C0A6F00E
:1012600002C0A7F0AEC008F0AFC009F0000E0B6ED0
:101270000A0E0A6EC8EC0FF008C0A8F009C0A9F069
:10128000B0C001F0B1C002F0000E046E0A0E036E91
:1012900035EC0FF001C0AAF002C0ABF0B0C008F00E
:1012A000B1C009F0000E0B6E0A0E0A6EC8EC0FF00A
:1012B00008C0ACF009C0ADF0800E0D6E000E0E6ED1
:1012C000180E0F6E100E106EA6C011F0A7C012F00F
:1012D000A8C013F0A9C014F0AAC015F0ABC016F056
:1012E000ACC017F0ADC018F0CFEC09F0800E0F6E57
:1012F000000E106E5EEC0EF0010E0B6E000EE9ECAF
:101300000FF0000E0001B36F000EB26F6EEC11F023
:101310000009D8B43AD09FEC11F00001B46FB45179
:1013200097EC11F0420E0001B419D8B40AEC10F099
:101330000001B6BF0ED0B65104E1100EB55DD8A0C5
:1013400008D0010E7DEC10F0000E0001B66F000E0B
:10135000B56F010E0B6EB551E9EC0FF00001B45101
:1013600089EC0EF00001B54BB62B0FD0B3BF0DD0FA
:10137000B35104E1020EB25DD8A007D0B2EC0BF07D
:10138000000E0001B36F000EB26F0001B24BB32B21
:10139000000E026E320E016EEAEC10F0C2D6110E93
:1013A0001E6E000E1F6EE1D0250E2518D8B409D090
:1013B0000DC0D9FF0EC0DAFF25C0DFFF0D4A0E2A8F
:1013C000D4D0000E246E000E236E000E1D6E0FC0D2
:1013D000F6FF10C0F7FF0800F55051EC11F0D8A04F
:1013E00036D0000E246E000E236E23C001F024C000
:1013F00002F0000E046E0A0E036ED7EC10F001C06E
:1014000023F002C024F0D00E196EFF0E1A6E0FC02A
:10141000F6FF10C0F7FF0800F5501B6E1C6A19504C
:101420001B261A501C221B5023261C5024220F4A14
:10143000102A0FC0F6FF10C0F7FF0800F55051EC5E
:1014400011F0D8A004D0D1D7C00E1D1211D00FC0FA
:10145000F6FF10C0F7FF0F4A102A0800F5CF25F05D
:101460002550000AD8B48DD0750AD8B4EDD77DD0F8
:101470001EC0D9FF1FC0DAFFDECF20F0DDCF21F084
:10148000020E1E26000E1F22010E256E050E2518C7
:10149000D8B412D02550020D0E0EF324F66E100EA5
:1014A000F420F76E0900F550205C0900F550215832
:1014B000D8A002D0252AEAD7800E25BE7F0E196E4D
:1014C0002350255C2450800A1958D8B007D02550E5
:1014D000235E000E25BEFF0E245A04D0000E246E9B
:1014E000000E236E23502410D8B40FD00DC0D9FFA6
:1014F0000EC0DAFF200EDF6E0D4A0E2A2306D8A09A
:10150000240623502410D8A4F1D725C022F029D0D6
:101510002250020D0E0EF324F66E100EF420F76E1C
:101520000900F5CF03F00A00F5CF04F020C001F068
:1015300021C002F035EC0FF001C008F002C009F044
:10154000000E0B6E0A0E0A6EC8EC0FF00850300F3A
:10155000256E0DC0D9FF0EC0DAFF25C0DFFF0D4A92
:101560000E2A22062228D8A4D3D70FC0F6FF10C017
:10157000F7FF0F4A102A0800F5CF25F02550D8A410
:1015800013D70DC0D9FF0EC0DAFF000EDF6E1200B8
:10159000000E1C6E000E1B6E020E1B6401D01ED0CE
:1015A000190E096E000E0A6E70EC0CF00009D8B42A
:1015B0000DD01C50020D1D0EF324D96E000EF42028
:1015C000DA6E19C0DEFF1AC0DDFF1C2A000E026EA3
:1015D0003C0E016E60EC11F01B2ADED7030E1C607E
:1015E00039D0020E1C18D8A433D01D0E016E000E87
:1015F000026E1CC003F0EAEC0CF01DC011F01EC01E
:1016000012F0111E121E114A122A1F5011262050CC
:10161000122212501DE1090E115CD8B019D01D50D4
:101620001F24116E1E502020126E010E1126000E76
:101630001222D8901230146E1130136E0FC0D9FFE1
:1016400010C0DAFF13C0DEFF14C0DDFF010E120070
:10165000000E12001D0E016E000E026E1CC003F083
:10166000EAEC0CF01DC011F01EC012F0111E121E8B
:10167000114A122A2150112622501222125004E13E
:10168000090E115CD8A064D01DC011F01EC012F06C
:10169000111E121E114A122A1F501124156E2050BD
:1016A0001220166E20EE1FF0DECF11F0DDCF12F00B
:1016B000111E121E114A122A21501124176E225097
:1016C0001220186E165023E1090E155CD8B01FD0F9
:1016D0001550175C16501858D8A019D01D501F244B
:1016E000116E1E502020126E010E1126000E1222C5
:1016F000D8901230146E1130136E0FC0D9FF10C085
:10170000DAFF13C0DEFF14C0DDFF010E1200185017
:101710001DE1090E175CD8B019D021501F24116E9D
:1017200022502020126E010E1126000E1222D89097
:101730001230146E1130136E0FC0D9FF10C0DAFFD3
:1017400013C0DEFF14C0DDFF010E1200000E1200F8
:101750000FC0D9FF10C0DAFF1FC0DEFF20C0DDFFC1
:10176000010E1200B7C051F0260E0D6E000E0E6E67
:101770007C0E0F6E100E106E51C011F0126A000E2A
:10178000146EA00E136ECFEC09F0260E026E000E42
:10179000036E0FEC11F05150ABEC10F0000E026E26
:1017A000460E016E60EC11F0000E0B6E000EE9ECBF
:1017B0000FF04F0E0F6E000E106EC8EC0AF000090D
:1017C000D8B458D03E0E0D6E000E0E6E5F0E0F6E2A
:1017D000100E106E51C011F0126A4FC013F050C0BD
:1017E00014F0CFEC09F03E0E0F6E000E106E5EECA2
:1017F0000EF0260E0D6E000E0E6E7E0E0F6E100E8B
:10180000106E51C011F0126A4FC013F050C014F0A6
:10181000CFEC09F0260E026E000E036E0FEC11F0F5
:1018200050501AE10B0E4F5CD8B016D08A84010ECE
:101830000B6E000EE9EC0FF02C0E0F6E100E106EFA
:101840005EEC0EF0500EC1EC10F0000E026E780E41
:10185000016E60EC11F041D08A948B94010E0B6EF6
:10186000000EE9EC0FF04E0E0F6E100E106E5EECD7
:101870000EF033D08A948B943E0E0D6E000E0E6ED9
:101880003D0E0F6E100E106E51C011F0126ACFECAB
:1018900009F03E0E0F6E000E106E5EEC0EF0260E7E
:1018A0000D6E000E0E6E860E0F6E100E106E51C075
:1018B00011F0126ACFEC09F0260E026E000E036ED4
:1018C0000FEC11F0010E0B6E000EE9EC0FF04E0E56
:1018D0000F6E100E106E5EEC0EF048EC10F0120061
:1018E00085EC11F00ED0750E086E300E076E32ECDE
:1018F00011F00009D8B404D0A3EC11F0000E1200CE
:10190000040082B6F0D7A3EC11F08B90000E026EAB
:10191000020E016EB4EC0EF08B80000E026E0A0E09
:10192000016EB4EC0EF08B9085EC11F00ED0750EBC
:10193000086E300E076E32EC11F00009D8B404D0F6
:10194000A3EC11F0000E1200040082A6F0D785EC83
:1019500011F00ED0750E086E300E076E32EC11F0DD
:101960000009D8B404D0A3EC11F0000E120004005A
:1019700082B6F0D7A3EC11F07AEC11F001C00BF0B5
:1019800002C00CF01D0E0B24016E000E0C20026E26
:10199000000E046E3A0E036E35EC0FF001C00DF030
:1019A00002C00EF00E5004E1030E0D5CD8A006D06C
:1019B0000E5004E13D0E0D5CD8A002D0000E1200C6
:1019C00009C0D9FF0AC0DAFF0DC0DEFF0EC0DDFF7F
:1019D000010E1200000E0B6E4BD00B280A6E43D086
:1019E0000B50020DF3500124D96EF4500220DA6E30
:1019F0000A50020DF3500124E16EF4500220E26E11
:101A0000DE50E65CDE50E658D8B02CD00B50020D0C
:101A1000F3500124D96EF4500220DA6EDECF08F0C4
:101A2000DDCF09F00A50020DF3500124D96EF450B5
:101A30000220DA6E0B50020DF3500124E16EF450D7
:101A40000220E26EDECFE6FFDDCFE5FF0A50020D99
:101A5000F3500124D96EF4500220DA6E08C0DEFF84
:101A600009C0DDFF0A2A03500A5CD8A0B9D70B2AA7
:101A700003500B5CD8B01200B0D7226E000E1D6E62
:101A8000000E1E6E000E1F6E000E206E225063ECC4
:101A900010F0000E026E020E016EEAEC10F0000E65
:101AA000216E12D0225063EC10F001501D2602501E
:101AB0001E22000E1F22000E2022000E026E020EB9
:101AC000016EEAEC10F0212A1A50215CD8A0EAD766
:101AD0001AC01CF0D8901C321C501D240D6E000E34
:101AE0001E200E6E000E1F200F6E000E2020106EA6
:101AF0001A50116E126A136A146A84EC0DF00DC04C
:101B00001AF00EC01BF01200000E156E000E166EBD
:101B1000000E176E000E186E1150121013101410D4
:101B2000D8B42AD0010E196E06D0D89011361236CC
:101B300013361436192A14AEF8D7D890153616363F
:101B40001736183611500D5C12500E5813500F589E
:101B500014501058D8A009D011500D5E12500E5AD2
:101B600013500F5A1450105A1580D8901432133253
:101B700012321132192EE1D715C00DF016C00EF039
:101B800017C00FF018C010F01200206EB40E2064C1
:101B900002D0B40E206EE80E1C6E030E1D6E000EF9
:101BA0001E6E000E1F6E2050016E026A036A046AE8
:101BB000E80E056E030E066E000E076E000E086E30
:101BC0000AEC0FF001C00DF002C00EF003C00FF0E0
:101BD00004C010F0B40E116E000E126E000E136EE3
:101BE000000E146E84EC0DF00D501C260E501D22BC
:101BF0000F501E2210501F221CC01AF01DC01BF0D7
:101C00001200839483928396000E026E190E016E69
:101C1000EAEC10F0010E0B6E030E0B6401D00BD03A
:101C2000030E21EC11F0000E026E060E016EEAECBE
:101C300010F00B2AF1D7020E21EC11F0000E0B6E02
:101C4000030E0B6401D012000B50010D520EF32451
:101C5000D96E000EF420DA6EDF50096E000E82ECB1
:101C60000FF00B2AEDD71AC001F01BC002F0036A77
:101C7000046A880E056E130E066E000E076E000EC7
:101C8000086E0AEC0FF0FF0E01240D6E010E02200B
:101C90000E6E000E03200F6E000E0420106EFF0E5D
:101CA000116E030E126E000E136E000E146E84EC95
:101CB0000DF00DC01AF00EC01BF0120015D00FC0B1
:101CC000F6FF10C0F7FF000EF86E0F0EF76403D09A
:101CD0000800F55005D0F6CFE9FFF7CFEAFFEF5047
:101CE00089EC0EF00F4A102A0FC0F6FF10C0F7FF64
:101CF000000EF86E0F0EF76403D00800F55005D003
:101D0000F6CFE9FFF7CFEAFFEF500009D8B4120091
:101D1000D6D70E6E1ED0010E096E000E82EC0FF0AB
:101D2000000E026E020E016EEAEC10F01200020EBE
:101D30000B6E010EE9EC0FF01200100E096E000E92
:101D400082EC0FF012000EC009F0010E82EC0FF0D1
:101D500012000E50080AD8B4F0D7020AD8B4E7D758
:101D6000060AD8B4D8D7EFD709D0210EE82EFED76F
:101D700000F0640E015E000E025A04000250F5E10C
:101D8000640E015CD8A00AD0F0D7030EE82EFED76F
:101D900000F00A0E015E000E025A04000250F5E146
:101DA0000A0E015CD8A006D0F0D700F00106D8A03A
:101DB0000206040001500210D8B41200F6D71AC06F
:101DC00001F01BC002F0036A046A880E056E130E50
:101DD000066E000E076E000E086E0AEC0FF0FF0E86
:101DE00001240D6E010E02200E6E000E03200F6EF8
:101DF000000E0420106EFF0E116E030E126E000E08
:101E0000136E000E146E84EC0DF00DC01AF00EC0AF
:101E10001BF01200000E096E000E0A6E000E0B6E13
:101E2000000E0C6E01A008D00550092606500A22AB
:101E300007500B2208500C22D8900536063607367C
:101E40000836D890043203320232013201500210B7
:101E500003100410D8A4E6D709C001F00AC002F0AC
:101E60000BC003F00CC004F01200000E066E000E52
:101E7000056E03500410D8B41CD0010E076E04D0B8
:101E8000D89003360436072A04AEFAD7D890053620
:101E900006360350015C04500258D8A005D0035008
:101EA000015E0450025A0580D89004320332072E96
:101EB000EDD705C001F006C002F01200500EF66E1C
:101EC000230EF76E000EF86E0900F5CFBAF04C0E37
:101ED000F66E230EF76E000EF86E00EE52F010EE66
:101EE00004F00900F5CFEEFFE550E150FAE1000102
:101EF000B96BB86BB76BB66BB56B000EF86E0001C3
:101F000047EF08F00A6E0AB002D0839201D08382B4
:101F1000010E94EC10F0010E94EC10F08396093849
:101F20000F0B21EC11F009500F0B21EC11F00A50AE
:101F3000D8B405D0320E0400E82EFDD71200000EF2
:101F4000026E020E016EEAEC10F01200000EF26E4C
:101F5000000EF16E070EB46E000EB56E0D0EC16E62
:101F6000000E8D6E8DCF8CFF8CCF8BFF8BCF8AFFB9
:101F70008ACF89FF9268FB0E936E000E966E96CF05
:101F800095FF880E946E8B908B928A948B9412009E
:101F90000A500B10D8B418D0010E0C6E04D0D89093
:101FA0000A360B360C2A0BAEFAD70A50085C0B50D7
:101FB0000958D8A004D00A50085E0B50095AD8908E
:101FC0000B320A320C2EF1D708C008F009C009F014
:101FD00012000C6E09D0800E05D0C00E03D0900EFA
:101FE00001D0D00E0D6E0DD00B50000AD8B4F3D72F
:101FF000010AD8B4F2D7030AD8B4F1D7010AD8B489
:10200000F0D70C500D260D508009096E000E82ECA1
:102010000FF01200000E066E000E056E06BE06D012
:10202000065016E1050E055CD8B012008B84010E37
:10203000026EF40E016EEAEC10F08B94010E026E4B
:10204000F40E016EEAEC10F00400054A062AE6D709
:1020500012008B8203C001F004C002F0B4EC0EF059
:102060008B92200E035C4E0E0458D8B0120003C0B1
:1020700005F004C006F0051E061E054A062A200EBD
:102080000524016E4E0E0620026EB4EC0EF0120016
:102090000001BA51800A7F0FD8A00AD0AE0EB765F2
:1020A00004D0B40EB76FBA691200050EB72712003C
:1020B000060EB76105D0000EB76F010EBA6F1200A1
:1020C000050EB75F1200076E07C003F00346034614
:1020D000C2500318C30B0318C26EC28201D00400A1
:1020E000C2B2FDD7C450036EC350056E03C006F0E4
:1020F00005C001F006C002F012000F6E0FC00BF019
:10210000000EE9EC0FF0000E106E0F0E106401D0FF
:1021100005D0200E89EC0EF0102AF7D70FC00BF077
:10212000000EE9EC0FF01200046E000E066E000EB9
:10213000056E03D00400054A062A0450016E026AA7
:102140000550015C0250800A036E0650800A035855
:10215000D8A01200EFD7236E2350C5EC0DF01AC0A3
:1021600021F01BC022F0000E246E070E246401D063
:10217000120021C003F022C004F029EC10F0242A40
:10218000F4D7016E000E026E0CD08B84A60EE82EE2
:10219000FED700D08B94A60EE82EFED700D0040008
:1021A000022A0150025CD8A0F0D78B941200015093
:1021B0000302F3CF05F0F4CF06F001500402F35010
:1021C000062602500302F350062605C001F006C0A1
:1021D00002F01200000E046E000E036E07D0C80E4F
:1021E00004000400E82EFCD7034A042A0350015CD3
:1021F00004500258D8A01200F2D7B896000EAC6E68
:10220000190EAF6E000EB06EAC84AC8A000EAB6ED1
:10221000AB88AB8EAECF01F0AECF01F0120009D08B
:1022200002C0D9FF03C0DAFFDF5097EC11F0024A79
:10223000032A02C0D9FF03C0DAFFDF50D8B412006E
:10224000EFD7086E08C007F0073A835007180F0B46
:102250000718836E010E94EC10F08386040000F0E2
:10226000839612009EA002D0010E12007AEC11F0AB
:102270000750015C08500258D8A002D0010E12008D
:10228000000E1200000EC26EC280000EC06EC08E24
:10229000C050F80B0109C06EC050C70B0809C06ED2
:1022A0001200036E000E026E3A0E036005D02F0E70
:1022B000036402D0010E026E02C001F00130120070
:1022C00008D0C80E00D0E82EFDD70106D8A002061F
:1022D000040001500210D8B41200F3D7ABB402D0FE
:1022E000ABA202D0AB98AB889EAA02D0010E12001E
:1022F000000E1200CECF05F0CFCF06F00650036ED1
:102300000550016E03C002F01200800ECD6E9E904B
:10231000000ECF6E000ECE6E810ECD6E1200800EBE
:10232000CD6E9E90000ECF6E000ECE6E1200016E2E
:1023300001D00400ACA2FDD701C0ADFF1200AECFAA
:1023400001F001501200800ECD6E1200280C010623
:01235000018B
:020000040020DA
:08000000FFFFFFFFFFFFFFFF00
:020000040030CA
:0E000000FF011F1FFF8381FF0FC00FE00F40A5
:00000001FF
